:020000040800F2
:1000000000080020550200083D17000835170008B9
:10001000391700084D0400084918000800000000C6
:10002000000000000000000000000000451700086C
:10003000510400080000000041170008491700089B
:100040006F0200086F0200086F0200086F020008CC
:100050006F0200086F0200086F0200086F020008BC
:100060006F0200086F0200086F0200086F020008AC
:100070006F0200086F0200086F0200086F0200089C
:100080006F0200086F0200086F0200086F0200088C
:100090006F0200086F0200086F0200086F0200087C
:1000A0006F0200086F0200086F0200086F0200086C
:1000B0006F0200086F0200086F0200086F0200085C
:1000C0006F0200086F0200086F0200086F0200084C
:1000D0006F0200086F0200086F0200086F0200083C
:1000E0006F0200086F0200086F0200086F0200082C
:1000F0006F0200086F0200086F0200086F0200081C
:100100006F0200086F0200086F0200086F0200080B
:100110006F0200086F0200086F0200086F020008FB
:100120006F0200086F0200086F0200086F020008EB
:100130006F0200086F0200086F0200086F020008DB
:100140006F0200086F0200086F0200086F020008CB
:100150006F0200086F0200086F0200086F020008BB
:100160006F0200086F0200086F0200086F020008AB
:100170006F0200086F0200086F0200080000000014
:100180006F0200086F02000800F002F800F052F859
:1001900014A696E8000CB244B344DA4501D100F04D
:1001A00049F8BAE80F000FA696E83000A5EB040561
:1001B00004EB0607AAEB0704A7F101074FEA1515A0
:1001C0004FEA3414A4F10104AC4201D300F032F838
:1001D00013F0010F18BFFB1A43F0010300F001F800
:1001E000DBE718474820000068200000103A24BFD1
:1001F00078C878C1FAD8520724BF30C830C144BF8C
:1002000004680C6070470000704700000023002461
:1002100000250026103A28BF78C1FBD8520728BF16
:1002200030C148BF0B6070471FB501F0E5FF1FBD2F
:1002300010B510BD00F0D0F81146FFF7F5FF01F042
:10024000E9FE00F0EEF803B4FFF7F2FF03BC00F0A4
:10025000F5F800000948804709480047FEE7FEE737
:10026000FEE7FEE7FEE7FEE7FEE7FEE7FEE7FEE766
:1002700004480549054A064B704700004D17000821
:10028000890100080002002000080020000400206E
:100290000004002053EA020C00F069802DE9F04BC5
:1002A0004FF00006002B1FBFB3FA83F503FA05F4E5
:1002B00024FA05F65E4012BF1643B2FA82F502FA3E
:1002C00005F4C5F120051EBF22FA05FC44EA0C0422
:1002D000203556EA044C4FEA144418BF641C4FF012
:1002E00000084FF00009904271EB030C39D300294C
:1002F00019BFB1FA81F701FA07F6B0FA80F700FAF0
:1003000007F6C7F120071EBF20FA07FC46EA0C06D5
:100310002037B6FBF4FCA7EB0507103F07F01F0BD7
:10032000CBF120062CFA06F60CFA0BFB44BFB346C1
:100330000026202FA4BF5E464FF0000B5BEA060CA0
:1003400008BF4FF0010B19EB0B0948EB0608ABFB9C
:10035000027C06FB02CC0BFB03CCC01B71EB0C0137
:10036000C1E70B46024641464846BDE8F08B13B54F
:10037000084318BF4FF0FF300146AFF30080BDE8DF
:100380001C4070474FF0000200B513469446964655
:10039000203922BFA0E80C50A0E80C50B1F1200198
:1003A000BFF4F7AF090728BFA0E80C5048BF0CC046
:1003B0005DF804EB890028BF40F8042B08BF7047A4
:1003C00048BF20F8022B11F0804F18BF00F8012B16
:1003D0007047704770477047754600F02BF8AE467F
:1003E00005006946534620F00700854618B020B541
:1003F000FFF73EFFBDE820404FF000064FF000073A
:100400004FF000084FF0000BAC46ACE8C009ACE878
:10041000C009ACE8C009ACE8C00921F007018D466D
:10042000704710B50446AFF300802046BDE8104089
:10043000FFF709BF00487047180000200149182045
:10044000ABBEFEE72600020070470000FEE700009A
:1004500070470000F0B581B040F2D817044643F66B
:100460000C46C2F200070020C4F20206F86100F058
:1004700043FB3168C9031BD43068C0071CBF01208F
:100480003060306810F0F20F30D03068C00631D4E0
:100490003068800637D4306840063DD430680006A6
:1004A00043D43068800749D4012001B0F0BD00BFBB
:1004B000C4B10546601C10D13068C003DCD530687B
:1004C000C00344BF30685FEAC030D5D53068C00390
:1004D000F2D4D1E73068C003CED500F00DFB401B4D
:1004E000A042F7D9032001B0F0BD00BF002001B049
:1004F000F0BD00BFF86940F01000F86110203060D6
:1005000030688006C7D5F86940F00800F8612020FF
:10051000306030684006C1D5F86940F00400F861E9
:100520004020306030680006BBD5F86940F002001A
:10053000F8618020306030688007B5D5F86940F0F8
:100540002000F86102203060012001B0F0BD000001
:10055000B0B5864602208EF80500DEF8000042B3F2
:1005600002F0030C94084FF0000210D0A1F1100328
:10057000A2EB840453F8105F043A05605D6894426E
:1005800005609D680560DD680560F3D15242BCF1ED
:10059000000F0ED051F82230BCF1010F036008D0DB
:1005A00001EB82014A68BCF1020F02601CBF89683E
:1005B0000160006801218EF80510B0BD002804BF5D
:1005C00001207047417919B1012141710020704724
:1005D00010B500210171044600F008F82046BDE87E
:1005E00010400121417100207047000043F63001A6
:1005F000C4F202010068A1F50362904218BF70477F
:1006000081B000200090086840F4805008600868BD
:1006100000F480500090009801B070472DE9F0433D
:1006200081B040F2D818C2F2000898F81820012AC8
:1006300004D1022001B0BDE8F08300BF05460120CF
:1006400088F818004CF250308946FFF703FF28B1B4
:10065000002188F8181001B0BDE8F0834FF0FF309A
:10066000C9F80000286843F610470128C4F20207C1
:100670001CD128693968000221F440713960396859
:1006800080B241F0040139603968084340F4803099
:1006900038604CF25030FFF7DDFE396821F004017C
:1006A000396057F8101C89053BD452E0D5E9026047
:1006B0003044864230D2F000841C00BF28694FF4D9
:1006C0004072C1B2032939684FEA002021F4407119
:1006D0003960396838BF82B241EA02003860386850
:1006E00020F0F8003860386820433860386840F4FB
:1006F000803038604CF25030FFF7ACFE396800288B
:1007000021F0FA01396047D1D5E9020101360844E8
:10071000864204F10804D1D3002057F8101C890543
:1007200017D557F8101C21F4007147F8101C57F822
:10073000101C41F4006147F8101C57F8101C21F4FC
:10074000006147F8101C57F8101C41F4007147F87D
:10075000101C57F8101C49057FF57AAF57F8101C8C
:1007600021F4806147F8101C57F8101C41F48051A7
:1007700047F8101C57F8101C21F4805147F8101C42
:1007800057F8101C41F4806147F8101C002188F8CC
:10079000181001B0BDE8F083C9F8006057F8101CCC
:1007A0008905BED4D5E7000043F614410F22C4F2F8
:1007B000020102604A8882604A78CC2A02D1CC22A7
:1007C00004E000BF4A78AA2A18BF552202610A68CD
:1007D00002F0E0020276097801F00C0141617047F5
:1007E00043F61041C4F20201086840F000420020C4
:1007F0000A60704743F61441C4F20201086840F0F1
:10080000010200200A60704743F60840C4F202006B
:10081000C168C90704BF0120704742F63B21C0F6FA
:100820001901016046F67F61C4F65D410160002058
:10083000704700002DE9F04140F2D814C2F20004E4
:10084000277E012F04BF0220BDE8F081054601206C
:1008500020764CF2503098460F461646FFF7FAFDC8
:1008600020B100212176BDE8F08100BF2A46022D8B
:1008700043F61045C4F202051ED0012A314638461F
:100880000CD03ABB2A6822F440722A602A682A6097
:100890002A6842F001022A6001702CE02A6822F4E2
:1008A00040722A602A6842F480722A602A6842F004
:1008B00001022A6001801EE0286820F44070286050
:1008C000286840F400702860286840F00100286023
:1008D0003E6010E02A6822F440722A602A6842F4DE
:1008E00040722A602A6842F001022A600160BFF368
:1008F0006F8FC0F804804CF25030FFF7ABFD2968D1
:1009000021F00101296000212176BDE8F08100007D
:1009100043F60440C4F20200C168B1F1FF3FC4BF16
:100920000020704740F22311C4F26751016048F67D
:10093000AB11CCF6EF510160C068C00F70470000EA
:100940002DE9F04F83B000F1200200F13E4741F65F
:100950000045009207F1FF77C4F2020508224FEA32
:10096000B726A84208BF072200254FF000084FF025
:100970000009072E38BF4FEAB72201920AE000BFF4
:1009800009F1010908F10208B9F1100F05F1040598
:1009900000F0A2800F68012202FA09FE17EA0E0A8F
:1009A000EED0D1F804C003220CF003077E1E02FA39
:1009B00008F4012E6FEA040B12D88468CE6804EAAA
:1009C0000B0406FA08F634438460446824EA0E06F1
:1009D000CCF3001404FA09F42643466004E000BF97
:1009E000032F01D103271EE0C6688C6806EA0B06B8
:1009F00004FA08F42643022FC66014D16FF00302F4
:100A0000009E02EA590756F807C005F01C040F22A1
:100A10000B69A2402CEA0202A3401A43F251D1F81A
:100A200004C00CF00307026807FA08F302EA0B029D
:100A30001A431CF4403F0260A2D0002243F6440354
:100A40000292C4F202031A6843F6004442F4804260
:100A50001A601A68C4F2010402F480420292029AF7
:100A600029F003024FF6084C2244CFF6FF7C52F8DF
:100A70000C3005F00C070F26BE40B343019E06FA6A
:100A800007F73B4342F80C30A2684B6842EA0A077A
:100A900043F60C4CDE0258BF22EA0A07A760C4F2F4
:100AA000010CDCF800209E0242EA0A0758BF22EA45
:100AB0000A07CCF8007062689E0342EA0A0758BF32
:100AC00022EA0A0767602268DB0342EA0A0758BF86
:100AD00022EA0A07276053E703B0BDE8F08F000061
:100AE0000069084018BF012070470000002A08BFB5
:100AF000090481617047000040F2F810C2F2000062
:100B00000068704740F2000040F2F811C2F20000A5
:100B1000C2F2000100780A681044086070470000C3
:100B200080B543F60040C4F20200016841F4007150
:100B30000160016841F480610160016841F48071E5
:100B40000160032000F076F8002000F005F800F0C6
:100B500027F8002080BD000070B540F20006C2F208
:100B6000000640F208013278C2F200014FF47A73B5
:100B70000968B3FBF2F20446B1FBF2F1084600F05B
:100B80004FFB0F2C4FF0010508D838B94FF0FF305C
:100B900021460022002500F021F87460284670BD2F
:100BA00082B0002043F640010190C4F202014A687D
:100BB00042F480424A604A6802F480420192019AFB
:100BC0000090086840F080500860086800F080508D
:100BD00000900098072002B000F02CB810B54EF637
:100BE0000C5CCEF2000CDCF80030C3F3022E8EF069
:100BF0000704042C28BF0424BEF103034FF0FF3E7A
:100C00000EFA04F438BF0023A14399400EFA03F30F
:100C10009A43114300F00F0200F160430901043AC6
:100C200003F564436244002848BF02F10C031970C5
:100C300010BD00004EF60C51CEF200010A684FF6CE
:100C4000FF031A4060F30A2242F0806040F0FD701A
:100C500008607047002804BF012070472DE9F0416B
:100C600043F60808C4F202080446D8F8F8030D4613
:100C700000F00700884207D288F8F853D8F8F80344
:100C800000F00700A84277D12068810717D54107F7
:100C900005D5D8F8001041F4E051C8F8001001075C
:100CA00005D5D8F8001041F46041C8F80010D8F814
:100CB0000010A26821F0F0011143C8F80010C0072D
:100CC00040D1D8F8F80300F00700A84207D988F807
:100CD000F853D8F8F80300F00700A8424CD1206878
:100CE000410707D5D8F80010E26821F4E05111431C
:100CF000C8F80010000708D5D8F80000216920F4D2
:100D0000604040EAC100C8F8000000F07DF8D8F863
:100D1000001042F21222C1F30311C0F60002515C2E
:100D200040F2080220FA01F140F20400C2F2000091
:100D30000068C2F200021160FFF70EFF0020BDE85C
:100D4000F08100BF6068811E022907D258F8081C94
:100D500089015CBF0120BDE8F08111E0012807D1C5
:100D600058F8081C89035CBF0120BDE8F08107E04A
:100D700058F8081C890703D40120BDE8F08100BFA2
:100D8000D8F8001021F003010843C8F80000FFF76D
:100D9000B3FE064641F28837D8F80000616800F0DB
:100DA0000C00B0EB810F8CD0FFF7A6FE801BB84281
:100DB000F2D90320BDE8F08140F2080043F60801B3
:100DC000C2F20000C4F202010068096842F2222265
:100DD000C1F38221C0F60002515CC8407047000098
:100DE00040F2080043F60801C2F20000C4F202011A
:100DF0000068096842F22222C1F34231C0F60002C3
:100E0000515CC8407047000010B543F60404C4F2BA
:100E10000204606800F00C0142F200400829C0F2B0
:100E2000F40007D0042918BF10BD41F20020C0F221
:100E30007A0010BD216801F03F0221682368490251
:100E4000C3F3881106D4A1FB00010023FFF722FAA7
:100E500007E000BF41F20020C0F27A004843B0FB37
:100E6000F2F021680222C1F3014102EB4101B0FB23
:100E7000F1F010BD002804BF012070472DE9F041BA
:100E800082B00446007843F60006C007C4F20206AA
:100E90000CD0B06800F00C00042840F0818030686D
:100EA000800303D56068002800F0688120788007FF
:100EB0001BD5B06810F00C0F09D0B06800F00C0022
:100EC000082840F087807068400200F18380306815
:100ED000800703D5E068012840F05081306821691F
:100EE00020F0F80040EAC10030602078000713D4F9
:100EF000207840072AD4A569002D00F03A81B06817
:100F000000F00C00082840F0A580012D40F00E8173
:100F1000012002B0BDE8F0816069002800F0828005
:100F20000020C4F247200121C0F8801EFFF7E4FD35
:100F3000054600BF706F8007DAD4FFF7DDFD401B68
:100F40000228F7D9032002B0BDE8F081306C5FEAD7
:100F5000C0080AD400200190306C40F0805030640A
:100F6000306C00F080500190019847F20007C4F205
:100F700000073868C00547D4386840F4807038608E
:100F8000FFF7BAFD054600BF3868C0053CD4FFF73F
:100F9000B3FD401B0228F7D9032002B0BDE8F08161
:100FA000B06800F00C00082803D1706840023FF5DB
:100FB00076AF61683068B1F5803F07D0B1F5A02FFA
:100FC00040F09A8040F480203060306840F48030F7
:100FD00030609AE0E068002840F20000C4F2472048
:100FE0005CD001210160FFF787FD0546306880076E
:100FF0003FF574AFFFF780FD401B0228F6D90320B0
:1010000002B0BDE8F08100BFA168306F012905D0B2
:10101000052955D140F004003067306F40F00100E1
:10102000306756E00020C4F247200021C0F8801E3F
:10103000FFF762FD054600BF706F80077FF558AF70
:10104000FFF75AFD401B0228F6D9032002B0BDE885
:10105000F08100BF0027C4F2472700203866FFF761
:101060004BFD022D05460DD13068800140F18A808C
:10107000FFF742FD401B02284FF00300F4D902B0F5
:10108000BDE8F0813068800173D5FFF735FD401B66
:1010900002284FF00300F5D9F1E700BF00210160FD
:1010A000FFF72AFD054600BF306880077FF51DAFBA
:1010B000FFF722FD401B02284FF00300F4D9DEE7C2
:1010C00020F001003067306F002920F00400306705
:1010D0007AD0FFF711FD054641F28837306F80075F
:1010E00000F18480FFF708FD401BB842F6D90320C9
:1010F00002B0BDE8F08100BF20F48030306030687D
:10110000002920F4802030607AD0FFF7F5FC0546F6
:10111000306880033FF5CAAEFFF7EEFC401B642841
:10112000F6D9032002B0BDE8F08100BF7068E16924
:1011300000F480028A4221D1216A00F03F028A42F3
:101140001CD147F6C071626A0140B1EB821F15D114
:10115000A16A4FF6FF73C903994300F44032A1F529
:1011600080318A420AD1E16A00F07060B0EB016F11
:1011700004D1002002B0BDE8F08100BF012002B020
:10118000BDE8F08104F11C052FCD084340EA821030
:10119000D9034FF6FF729143A1F5803140EA056013
:1011A0000843706001203866FFF7A6FC044600BFC4
:1011B00030688001DDD4FFF79FFC001B02284FF050
:1011C0000300F5D95BE700BFFFF796FC054641F247
:1011D000883700BF306F800708D5FFF78DFC401BB4
:1011E000B8424FF00300F5D949E700BFB8F1000F4E
:1011F0003FF581AE306C20F0805030647BE600BF5C
:10120000FFF77AFC054600BF306880037FF54EAEDD
:10121000FFF772FC401B64284FF00300F4D92EE75F
:10122000411E0020B0EB116F1CBF012070474EF231
:101230001002CEF2000251604EF62351CEF20001B0
:10124000F0230B700721906011607047002804BFE5
:101250000120704710B5044690F8410028B90020DD
:1012600084F84000204600F021F8242084F8410052
:101270002068C16821F40051C160204600F070FA76
:101280002068016921F490410161416921F02A013E
:101290004161C16841F40051C160002020216064B7
:1012A00084F8411084F84210606310BD80B586B0A8
:1012B000006844F60002C4F2000200219042CDE929
:1012C0000411CDE90211019124D044F20041C4F28D
:1012D0000001884249D1002043F630010090C4F259
:1012E00002010A6942F400320A610A6902F400321A
:1012F0000092009A0090086840F0010008600868B9
:101300000C2100F00100009000980020C4F20200BF
:101310001FE000BF43F630000091C4F202000269F2
:1013200042F480220261026902F480220092009A53
:101330000091016841F00401016000684FF44061D0
:1013400000F00400009000980020C4F2020000F5B4
:101350000060019102210291002103910321049177
:101360000721059101A9FFF7EBFA06B080BD000047
:101370002DE9F04381B0044690F84200202809D1BD
:10138000884600294FF0010018BF002A06D101B09D
:10139000BDE8F083022001B0BDE8F08300202221E7
:1013A0001D46606484F8421020631646FFF7A4FBD4
:1013B000A685E685A1680746B1F5805F02D1206960
:1013C000002851D046464FF00008E08D00284FD04D
:1013D00005F101090CE000BF406800266FF35F20B3
:1013E00028F8020BE08D0138E085E08D00283FD021
:1013F00020680168890617D4B9F1000F22D0002DAA
:1014000000F0CA80FFF778FBC01BA84200F2BC8046
:101410002068C168490744BF01685FEA01712FD4A1
:1014200001688906EED500BF002ED5D0A168B1F5C0
:10143000805F15D009B9216991B1406800F07F0043
:101440000FE000BF01688906EED4016889065CBF21
:1014500001685FEA8161E7D401688906F2D5E3E7B4
:10146000406806F8010BBDE70026E08D0028AFD1EB
:101470000020202184F8421001B0BDE8F08300BFB5
:10148000002100910168009140680090009800BF21
:10149000206850E8030F216820F4907041E80302AF
:1014A000BAB3206850E8030F216820F4907041E837
:1014B000030272B3206850E8030F216820F4907093
:1014C00041E803022AB3206850E8030F216820F4A2
:1014D000907041E80302002ADAD11AE0206850E84F
:1014E000050F216820F0010041E80502DAB120680B
:1014F00050E8050F216820F0010041E8050292B193
:10150000206850E8050F216820F0010041E805023D
:101510004AB1206850E8050F216820F0010041E839
:101520000502002ADAD1206B012824D1206850E876
:10153000030F216820F0100041E80302DAB12068AF
:1015400050E8030F216820F0100041E8030292B137
:10155000206850E8030F216820F0100041E80302E2
:101560004AB1206850E8030F216820F0100041E8DC
:101570000302002ADAD1202084F84200002008214A
:101580002063616484F840000320202184F8421025
:1015900001B0BDE8F08300BFFFF7AEFAF4E700004A
:1015A0002DE9F04381B0044690F84100202809D18C
:1015B00000294FF0010018BF002A07D101B0BDE893
:1015C000F08300BF022001B0BDE8F083002060641A
:1015D00021201D460E4684F841001746FFF78CFA7D
:1015E000A784E784A1688146B1F5805F02D12069B4
:1015F00000285DD037460020E28C2168002A5DD0AB
:101600006A1C24D0002D4AD0804600BF086800061E
:1016100008D4FFF771FAA0EB0900A8427AD8216834
:10162000C868F3E717B117F8010B04E038F8020BAC
:1016300000276FF35F204860E08C0138E084E08C85
:101640000028E3D13AE000BF0A68120609D40A680C
:10165000120606D40A6812065CBF0A685FEA0262D4
:10166000F2D51FB117F8012B05E000BF30F8022BAF
:1016700000276FF35F224A60E28C013AE284E28C39
:10168000002AE4D11AE000BF30F8022B00276FF3E4
:101690005F224A60E28C013AE284E28C72B10A680D
:1016A000120635D5002FEFD017F8012BF1E700BF58
:1016B00000273046E28C2168002AA1D10868400644
:1016C0001ED42DB3681C14D1086840062AD40868BB
:1016D000400627D40868400624D4086840064FF026
:1016E0000000F1D50DE000BF2068C1680068400629
:1016F00018D4FFF701FAA0EB0900A842F4D909E0D9
:101700000020202184F8411001B0BDE8F08300BF23
:10171000FFF7F2F90320202184F8411001B0BDE861
:10172000F08300BF0020202184F8411001B0BDE803
:10173000F0830000FEE70000FEE70000FEE7000087
:101740007047000070470000FFF7DCB94EF6885084
:10175000CEF20000016841F47001016070470000A2
:10176000B0B50446006804F108030ECB05691943BF
:1017700025F440552A4302616269E3691143C26856
:10178000194349F20C639A431143C1604169A2694C
:1017900021F4407141F20043114340F48062C4F2ED
:1017A00001039A42416103D1FFF71AFB02E000BF37
:1017B000FFF702FBE1694FF69C7563681922C0F6DA
:1017C000FF75B1F5004FA0FB02011FD15A00DB0FDE
:1017D000FEF760FD48F21F51C5F2EB11A0FB01239B
:1017E0005A0905F1805302FB0300322303EBC000CA
:1017F000A0FB01014FF4F87000EA111000EB021099
:10180000C1F34211084421688860B0BD9A009B0F63
:10181000FEF740FD48F21F51C5F2EB11A0FB01237A
:101820005A0902FB0500322303EB0010A0FB010163
:10183000F02000EA511000EB0210C1F343110844FC
:1018400021688860B0BD0000FEE700002DE9F04788
:1018500088B0804640F2C800C2F200000278002141
:101860008DF80710811851F803AC40F27809D71EA3
:10187000C2F2000912D040F27804461EC2F20004FF
:1018800003AD00BF16F8010F294603902046012240
:10189000FEF75EFE013FF5D101E000BFFF20D9F861
:1018A000001050458A6842F001028A602CD140F253
:1018B000A51009F108040025ADF80C0003A9204685
:1018C00002224FF0FF33C4F20205FFF769FE2846FB
:1018D00020210122FFF70AF998F8030008281BD8F5
:1018E00098F80220511CC9B2082915D8FF2A4FF0D8
:1018F000010113D0C2F10803DBB2834238BF18469E
:10190000CDE9052000200AE07F208DF80C0009F1C8
:10191000080003A91AE000BF04260DE00120CDE96C
:101920000301FEF7F5FF0220079003A802A9FEF7C6
:1019300075FE0646FEF754FF2846202100228DF84A
:101940000760FFF7D3F80DF10701204601224FF0A1
:10195000FF33FFF725FE08B0BDE8F0872DE9F04F13
:1019600083B0044600208DF8030040F2C800C2F2A4
:101970000000017814F8068F421854F8045C52F8FD
:1019800003AC40F27803CE1EC2F2000316D040F240
:10199000780BA0F10109C2F2000B01AF19F8010F99
:1019A0003946019058460122FEF7D2FD013EF5D19D
:1019B00040F27803C2F2000301E000BFFF20196883
:1019C00050458A6842F001028A6029D140F2A51090
:1019D00003F10806ADF809000DF1090130460222B5
:1019E0004FF0FF33FFF7DCFD4FF6FF70CDF6FD70D3
:1019F000284410F1021F1BD828466FF31300B0F1E2
:101A0000006F15D04AF6FF70CBF6FD7028446FF4D6
:101A1000805188420CD201208DF803002EE000BFD7
:101A20007F208DF80B0003F108000DF10B0128E079
:101A30000027C4F20207384620210122FFF756F89A
:101A4000FEF766FFB8F1000F0ED000BF14F8012FAB
:101A5000002029460023FEF7EDFEB8F1010805F14C
:101A60000105F3D1044600E00024FEF7B9FE384634
:101A7000202100228DF80340FFF738F80DF1030113
:101A8000304601224FF0FF33FFF78AFD03B0BDE877
:101A9000F08F00008AB040F2C80840F2780543F6A3
:101AA0000C4BC2F20008C2F20005C4F2020B05F1B1
:101AB000080A08F1010603AFA8F10100CDE900060C
:101AC0000AE000BF7F208DF80C0050463946012205
:101AD0004FF0FF33FFF764FD4046C821FEF752FC8C
:101AE0005046414601224FF0FF33FFF741FC98F882
:101AF0000020504631464FF0FF33FFF739FC98F88D
:101B0000010051380B28E7D8DFE800F00896546A46
:101B10001EACB08006B4063EDEE700BF98F80000B9
:101B200008EB000151F8039CC41E00F0CB81009E1D
:101B300016F8010F3946039028460122FEF708FDEA
:101B4000013CF5D1019EBEE198F8000000218DF81E
:101B50000A1008EB000151F8034CB0F103094FF0F3
:101B600001008DF8090000F09B80009E16F8010F1F
:101B70003946039028460122FEF7EAFCB9F1010933
:101B8000F4D1019E8DE000BF98F8000008EB000141
:101B900051F8039CC41E00F0B780009E16F8010F98
:101BA0003946039028460122FEF7D2FC013CF5D1CC
:101BB000019EAAE098F8000008EB000151F8039C90
:101BC000C41E00F0EF80009E16F8010F3946039006
:101BD00028460122FEF7BCFC013CF5D1019EE2E063
:101BE00098F8000008EB000151F8039CC41E00F0B7
:101BF000F580009E16F8010F394603902846012211
:101C0000FEF7A6FC013CF5D1019EE8E098F8000043
:101C100008EB000151F8039CC41E00F0FB80009EFD
:101C200016F8010F3946039028460122FEF790FC72
:101C3000013CF5D1019EEEE098F8000008EB0001B0
:101C400051F8039CC41E00F05381009E16F8010F4A
:101C50003946039028460122FEF77AFC013CF5D173
:101C6000019E46E14046FFF7F1FD35E74046FFF7AC
:101C700075FE31E798F8000008EB000151F8039C6D
:101C8000C41E00F05181009E16F8010F39460390E2
:101C900028460122FEF75CFC013CF5D1019E44E19F
:101CA000FF202968A0428A6842F001028A607FF41E
:101CB00009AF40F2A510ADF80C005046394602229B
:101CC0004FF0FF33FFF76CFCD8F802404FF6FF707F
:101CD000CDF6FD70204410F1021F00F2498120462C
:101CE0006FF31300B0F1006F00F042814AF6FF700D
:101CF000CBF6FD7020446FF48051884280F038812B
:101D000050460DF10901E2E6FF20296848458A683E
:101D100042F001028A607FF4D5AE40F2A510ADF822
:101D20000C005046394602224FF0FF33FFF738FCD3
:101D3000FEF76AFDDBF80000C0030CD5DBF80000FD
:101D4000C00344BFDBF800005FEAC03003D5DBF816
:101D50000000C003EED4DBF8080020F00040CBF810
:101D60000800DBF8080040F47F00CBF80800DBF83F
:101D7000080040F00200CBF80800DBF80000C003C8
:101D800040F13E81DBF80000C00344BFDBF80000F7
:101D90005FEAC03040F13481DBF80000C003ECD4CE
:101DA0002EE100BFFF20296848458A6842F0010201
:101DB0008A607FF487AE40F2A520ADF80C00504653
:101DC000394602224FF0FF33FFF7EAFB42F20000F0
:101DD000CEF2040000686FF31F30C1E0FF202968D5
:101DE00048458A6842F001028A607FF46BAE40F297
:101DF000A510ADF80C005046394602224FF0FF33D3
:101E0000FFF7CEFB4CF20000C1F6FF700068000A3D
:101E1000F9E000BFFF20296848458A6842F00102C6
:101E20008A607FF44FAE40F2A510ADF80C0050462A
:101E3000394602224FF0FF33FFF7B2FB98F8030058
:101E400098F80240022800F09F80012840F0DA80D4
:101E5000FEF7DAFCDBF80000C0030CD5DBF800006D
:101E6000C00344BFDBF800005FEAC03003D5DBF8F5
:101E70000000C003EED4DBF8080020F00040CBF8EF
:101E80000800DBF8080020EA0440CBF80800DBF883
:101E9000080040F00200CBF80800DBF80000C003A7
:101EA00040F1AE80DBF80000C00344BFDBF8000067
:101EB0005FEAC03040F1A480DBF80000C003ECD43E
:101EC0009EE000BFFF20296848458A6842F0010271
:101ED0008A607FF4F7AD40F2A510ADF80C005046D3
:101EE000394602224FF0FF33FFF75AFB10208AE0F9
:101EF000FF20296848458A6842F001028A607FF421
:101F0000E1AD40F6A500ADF80C005046394602227E
:101F10004FF0FF33FFF744FB40F20C015046C2F292
:101F200000010822D4E500BFFF20296848458A68DF
:101F300042F001028A607FF4C5AD40F2A520ADF801
:101F40000C005046394602224FF0FF33FFF728FBC2
:101F5000FEF75AFC3846FEF727FCFEF741FC0598D1
:101F6000ADF80A0050460DF10A010222B0E500BFAB
:101F700050460DF10A0101224FF0FF33FFF710FB2D
:101F8000601C8047A8E500BFFEF73EFCDBF80000C0
:101F9000C0030CD5DBF80000C00344BFDBF8000031
:101FA0005FEAC03003D5DBF80000C003EED4DBF8F5
:101FB000080040F00040CBF80800DBF8080020F4EF
:101FC0007F00CBF80800DBF8080040EA0440CBF8BB
:101FD0000800DBF8080040F00200CBF80800DBF84E
:101FE0000000C0030CD5DBF80000C00344BFDBF8E1
:101FF00000005FEAC03003D5DBF80000C003EED478
:10200000FEF7F8FB00208DF80A0050460DF10A019A
:102010005DE500002DE9F04393B043F6300547F24B
:102020000009C4F20205C4F20009FEF779FD07AC0D
:1020300020463021FEF7A6F900260696CDE9046673
:10204000CDE9026601962869022740F08050286198
:10205000286900F08050019001980196D9F800009D
:1020600040F48040C9F80000D9F8000000F4804036
:1020700001900198012007904FF4803008904FF4B0
:1020800080000E9008200F904FF4A870CDE9100743
:102090000720129020460D97FEF7ECFE10B100BF0E
:1020A000FEE700BF0F20CDE902074FF4A0500590D6
:1020B0004FF48050069002A805210496FEF7CAFD51
:1020C00010B100BFFEE700BF00240794286820215C
:1020D00040F0040028602868002200F00400079007
:1020E000079807942868202740F080002860286817
:1020F00000F08000079007980794286840F00100DE
:102100002860286800F00100079007980794286865
:1021100040F002002860286809F5C83500F0020088
:10212000079007982846FEF7E1FC4FF4005007900F
:102130004FF4041009F5CC3807AECDE90804404649
:102140003146FEF7FDFB0120CDE908042846314663
:1021500007970A94FEF7F4FB40F2780509F5E030A2
:10216000C2F2000528602846FEF728FA10B100BF29
:10217000FEE700BF44F20046C4F2000645F8086FCF
:102180004FF4E1374FF00C092846C5E90174C5E961
:102190000344C5E90594EC61FFF758F810B100BF9E
:1021A000FEE700BF40F2901006F58061C2F2000029
:1021B0000022C0E90017C0E90222C0E90429C0E9F1
:1021C0000622FFF743F808B1FEE700BF40464FF490
:1021D0000051FEF785FC68B148F20000C0F600002F
:1021E000016881F3088840688047002013B0BDE88B
:1021F000F08300BFFFF74EFCF1EE100A4FF6FF71BF
:10220000C0F2C03120EA010040F04070E1EE100A57
:1022100070470000000000000000010203040607F0
:102220000809000000000102030400005022000819
:102230000000002018000000EC01000868220008DF
:1022400018000020E80700000C0200080000000051
:1022500001000000100000000024F400515253540B
:082260005556575A000000001A
:040000050800018965
:00000001FF
